:100000000C9462000C948A000C948A000C948A0070
:100010000C948A000C948A000C948A000C94060AB2
:100020000C948A000C948A000C948A000C948A0028
:100030000C948A000C948A000C948A000C948A0018
:100040000C949D080C948A000C946B080C94450841
:100050000C948A000C948A000C948A000C948A00F8
:100060000C94E7080C948A0000000000240027008C
:100070002A0000000000250028002B0000000000DE
:1000800023002600290004040404040404040202DA
:100090000202020203030303030301020408102007
:1000A0004080010204081020010204081020000012
:1000B0000008000201000003040700000000000027
:1000C0000000D20A11241FBECFEFD8E0DEBFCDBFA3
:1000D00024E0A2EEB1E001C01D92AA37B207E1F719
:1000E00011E0A0E0B1E0EEE0F5E202C005900D9273
:1000F000A23EB107D9F710E0C2E6D0E004C02197D4
:10010000FE010E948D10C136D107C9F70E94580B1D
:100110000C9485120C9400000895AF92BF92CF9278
:10012000DF92EF92FF920F931F93CF93DF936C01B7
:100130007B018B01040F151FEB015E01AE18BF0898
:10014000C017D10759F06991D601ED91FC9101904A
:10015000F081E02DC6010995892B79F7C501DF9162
:10016000CF911F910F91FF90EF90DF90CF90BF90B4
:10017000AF900895FB0144815581608171810C9499
:100180008D0008950895FC01538D448D252F30E096
:10019000842F90E0821B930B541710F0CF96089594
:1001A00001970895FC01918D828D981761F0A28DC1
:1001B000AE0FBF2FB11D5D968C91928D9F5F9F7387
:1001C000928F90E008958FEF9FEF0895FC01918D3D
:1001D000828D981731F0828DE80FF11D858D90E0AA
:1001E00008958FEF9FEF0895FC01918D228D892F47
:1001F00090E0805C9F4F821B91098F73992708952F
:100200008AEA92E00E94F40021E0892B09F420E0C0
:10021000822F089580E090E0892B29F00E94000150
:1002200081110C9400000895FC01A48DA80FB92F32
:10023000B11DA35ABF4F2C91848D90E001968F730E
:100240009927848FA689B7892C93A089B1898C912D
:10025000837080648C93938D848D981306C002887C
:10026000F389E02D80818F7D80830895EF92FF9246
:100270000F931F93CF93DF93EC0181E0888F9B8DC9
:100280008C8D98131AC0E889F989808185FF15C083
:100290009FB7F894EE89FF896083E889F9898081A6
:1002A0008370806480839FBF81E090E0DF91CF9175
:1002B0001F910F91FF90EF900895F62E0B8D10E097
:1002C0000F5F1F4F0F731127E02E8C8D8E110CC006
:1002D0000FB607FCFACFE889F989808185FFF5CF51
:1002E000CE010E941401F1CFEB8DEC0FFD2FF11D1B
:1002F000E35AFF4FF0829FB7F8940B8FEA89FB898E
:1003000080818062CFCFCF93DF93EC01888D8823EB
:10031000B9F0AA89BB89E889F9898C9185FD03C068
:10032000808186FD0DC00FB607FCF7CF8C9185FF4D
:10033000F2CF808185FFEDCFCE010E941401E9CF7D
:10034000DF91CF910895833081F028F4813099F0C6
:100350008230A9F008958730A9F08830C9F0843040
:10036000B1F4809180008F7D03C0809180008F77F1
:1003700080938000089584B58F7784BD089584B5F7
:100380008F7DFBCF8091B0008F778093B000089570
:100390008091B0008F7DF9CFCF93DF93282F30E08D
:1003A000F901E255FF4F8491F901E656FF4FD491D0
:1003B000F901EA57FF4FC491CC23A1F081110E94AB
:1003C000A301EC2FF0E0EE0FFF1FE458FF4FA591C3
:1003D000B491EC91ED2381E090E009F480E0DF91AD
:1003E000CF91089580E090E0FACF1F93CF93DF93F1
:1003F000282F30E0F901E255FF4F8491F901E656CC
:10040000FF4FD491F901EA57FF4FC491CC23A9F0D3
:10041000162F81110E94A301EC2FF0E0EE0FFF1FB9
:10042000EE58FF4FA591B4918FB7F894EC9111114C
:1004300008C0D095DE23DC938FBFDF91CF911F9151
:100440000895DE2BF8CFCF93DF9390E0FC01E656C2
:10045000FF4F24918A579F4FFC0184918823D1F04C
:1004600090E0880F991FFC01E859FF4FA591B491C6
:10047000FC01EE58FF4FC591D49161110EC09FB79A
:10048000F8948C91E22FE0958E238C932881E223BF
:10049000E8839FBFDF91CF9108958FB7F894EC91D7
:1004A000E22BEC938FBFF6CF8E50806480937C005C
:1004B00080917A00806480937A0080917A0086FD32
:1004C000FCCF809178009091790008953FB7F8941F
:1004D0008091900290919102A0919202B09193022A
:1004E00026B5A89B05C02F3F19F00196A11DB11D8F
:1004F0003FBFBA2FA92F982F8827BC01CD01620FCB
:10050000711D811D911D42E0660F771F881F991F85
:100510004A95D1F708958F929F92AF92BF92CF9252
:10052000DF92EF92FF924B015C010E9466026B0129
:100530007C010E9466026C197D098E099F09683E44
:10054000734081059105A8F321E0821A9108A10862
:10055000B10888EEC80E83E0D81EE11CF11C81149E
:100560009104A104B10429F7FF90EF90DF90CF90A0
:10057000BF90AF909F908F9008952FB7F89460919F
:100580008C0270918D0280918E0290918F022FBF0C
:1005900008958F929F92AF92BF92CF92DF92EF9287
:1005A000FF926B017C010E94BD024B015C01C80CF3
:1005B000D91CEA1CFB1C0E94BD02681579058A053E
:1005C0009B0528F0C616D706E806F906A0F7FF90A7
:1005D000EF90DF90CF90BF90AF909F908F90089555
:1005E0000C94C902CF92DF92EF92FF920F931F9368
:1005F000811123C00E94BD02009155031091560342
:100600002091570330915803DC01CB01801B910BE3
:10061000A20BB30B81329105A105B10570F401E283
:1006200010E020E030E068017901C81AD90AEA0A2E
:10063000FB0AC701B6010E94C9020E94BD02609375
:10064000550370935603809357039093580381E0AA
:100650001F910F91FF90EF90DF90CF90089585ED5F
:100660008093BC008091BC0084FDFCCF10929A0264
:10067000089520914402260F3327331F213231057C
:10068000ECF420919A02FC0190E080E0243069F0C3
:1006900082E00895A09144022191AC014C5D5D4F30
:1006A000A40FB52FB11D2C930196861798F3809156
:1006B0004402680F6093440280E0089581E0089549
:1006C000E0919E0280919D02E81730F4F0E0EC5F2B
:1006D000FD4F808190E008958FEF9FEF08959091F6
:1006E0009E0280919D022FEF3FEF981748F4E92F6B
:1006F000F0E0EC5FFD4F208130E09F5F90939E0221
:10070000C901089580919D0290919E02891B990BC9
:100710000895CF92DF92EF92FF920F931F93CF93A2
:10072000DF937C01CB018A0120910302222389F00F
:10073000EB016B01C40ED51ECC15DD0569F0699186
:10074000D701ED91FC910190F081E02DC701099551
:10075000F3CF642F0E943903C801DF91CF911F911D
:100760000F91FF90EF90DF90CF900895CF93DF939C
:100770001F92CDB7DEB76983209103022223F9F0DF
:1007800020919B02203258F021E030E0FC013383BD
:10079000228390E080E00F90DF91CF9108958091C7
:1007A0009C02E82FF0E0ED51FE4F998190838F5F1E
:1007B00080939C0280939B0281E090E0ECCF61E00B
:1007C000CE0101960E943903F7CFCF93FC01C4817B
:1007D00021E020930302C093E20110929C02109248
:1007E0009B028385682B87E493E00E94B603909177
:1007F0009B02913208F03FC080919A028111FCCF98
:1008000082E080939A0281E0809399028FEF809337
:1008100067021092890290938802A3EEB1E0E8E6A5
:10082000F2E080E098132FC010928A0280918A0231
:10083000CC0FC82BC0938A0280919802813039F581
:100840001092980280918A028093BB008091BC0034
:1008500083FDF8CF85EC8093BC0080919A028230B2
:10086000E1F3809167028F3F31F08091670280321F
:1008700011F08091670210929C0210929B021092DC
:100880000302CF9108952D9121938F5FCBCF85EEF9
:10089000E2CF8F929F92AF92BF92CF92DF92EF9270
:1008A000FF926B017C010E9466024B015C0184E0B7
:1008B000C81AD108E108F108C80CD91CEA1CFB1CB5
:1008C000C814D904EA04FB0438F40E9466028616B0
:1008D0009706A806B906C8F30E9466026C157D0546
:1008E0008E059F05C8F3FF90EF90DF90CF90BF90EB
:1008F000AF909F908F900895089590E080E00895C4
:100900000F931F93CF93DF938C01D0E0C0E061E0A1
:1009100087E00E94F50162E370E080E090E00E94D1
:100920008B0260E087E00E94F50162E370E080E006
:1009300090E00E948B0221960C171D0741F7DF9172
:10094000CF911F910F9108951F93CF93DF9300D004
:1009500000D0CDB7DEB78AEA92E00E94D2008AEAE0
:1009600092E00E94D20010E08A3379F0E1E0F0E0FA
:10097000EC0FFD1FE10FF11D17FDFA9580831F5F3E
:100980008AEA92E00E94D200EFCFCE0101960E9447
:10099000D30F182F8AEA92E00E94D2008053990B5D
:1009A0008230910520F4682F812F0E94F5018AEA98
:1009B00092E00E94D2008A3011F08D30C1F78AEAAD
:1009C00092E00E94E6008A3021F48AEA92E00E94D6
:1009D000D2000F900F900F900F90DF91CF911F9149
:1009E00008958AEA92E00E94E600843611F40E949B
:1009F000A4040E94BD026093590370935A0380932C
:100A00005B0390935C0308950F931F93CF938C0126
:100A1000C62F0E94E5036C2F6460C8010E94E503A5
:100A20006C2F6B7FC8010E94E50383EC90E0019777
:100A3000F1F7CF911F910F9108950F931F93CF93CB
:100A4000DF938C01D62FC42F607F642B0E94040596
:100A500080E1D89FB00111246C2BC801DF91CF91A8
:100A60001F910F910C940405CF93DF93CDB7DEB7A0
:100A700028970FB6F894DEBF0FBECDBF28E0E7E0A1
:100A8000F1E0DE01119601900D922A95E1F7FC014B
:100A90002085241708F44FEF50E0440F551F21E044
:100AA00030E02C0F3D1F420F531FFA012081620FCF
:100AB000606840E028960FB6F894DEBF0FBECDBF49
:100AC000DF91CF910C941D0540E061E00E941D056F
:100AD0008BE39FE10197F1F7089541E00E941D0526
:100AE00081E090E00895FB0101900020E9F7319743
:100AF000AF01461B570BDC01ED91FC910280F381A5
:100B0000E02D09948F929F92AF92BF920F931F9303
:100B1000CF93DF93CDB7DEB7A1970FB6F894DEBFC2
:100B20000FBECDBF19A2423008F44AE08E010F5D1E
:100B30001F4F842E912CB12CA12CA50194010E9451
:100B40000110E62FB901CA01EA3004F5E05DD801D1
:100B5000EE938D01232B242B252B79F790E080E059
:100B6000109729F0BD018AEA92E00E947305A196D0
:100B70000FB6F894DEBF0FBECDBFDF91CF911F91AE
:100B80000F91BF90AF909F908F900895E95CDFCF59
:100B9000CF9390916903992309F448C0C82F8AEA3A
:100BA00092E00E94F400811109C085E6CF9108957A
:100BB00021373105D9F126373105C1F38AEA92E0B0
:100BC0000E94F400882389F38AEA92E00E94D2000E
:100BD0009C0133272836310549F154F72835310572
:100BE00039F12336310551F781E00E94F2026FE3BB
:100BF00071E08AEA92E00E9473056C2F70E090E049
:100C000080E04AE00E94820566E471E08AEA92E0B0
:100C10000E9473056DE471E08AEA92E00E94730518
:100C200062E370E080E090E00E94F00283E6BECFD5
:100C300010926903FBCF60E571E08AEA92E00E94BE
:100C400073056DE471E08AEA92E00C947305CF922B
:100C5000DF92EF92FF92CF93DF93C82F0E94BD02E5
:100C60006B017C0167E571E08AEA92E00E947305FE
:100C70006C2F70E090E080E04AE00E9482056EE513
:100C800071E08AEA92E00E9473054AE0C701B6016A
:100C90000E94820560E671E08AEA92E00E94730594
:100CA000C3E5D3E08E819F81A885B985A701960110
:100CB000281B390B4A0B5B0BCA01B9014AE00E94A1
:100CC000820560E671E08AEA92E00E9473056E8117
:100CD0007F8188859985CA84DB84EC84FD846C19C6
:100CE0007D098E099F094AE0DF91CF91FF90EF9037
:100CF000DF90CF900C9482050F931F93CF93DF93D7
:100D0000EC0188819981009759F02A813B8126174F
:100D1000370730F081E0DF91CF911F910F91089557
:100D20008B016F5F7F4F0E94B811009759F0998334
:100D300088831B830A832C813D81232B59F7FC0177
:100D40001082E8CF80E0E7CFCF93DF93EC0188817A
:100D50009981009711F00E942F11198218821D822B
:100D60001C821B821A82DF91CF910895EF92FF922D
:100D70000F931F93CF93DF93EC017B0119821882AD
:100D80001B821A821D821C82FB0101900020E9F760
:100D900031978F01061B170BB8010E947C06811149
:100DA00009C0CE01DF91CF911F910F91FF90EF907D
:100DB0000C94A4061D830C83B70188819981DF916F
:100DC000CF911F910F91FF90EF900C947E12FC0138
:100DD000808191810C942F116F927F929F92AF929C
:100DE000BF92CF92DF92EF92FF920F931F93CF9318
:100DF000DF93CDB7DEB762970FB6F894DEBF0FBEB4
:100E0000CDBF8C0184EF91E0A0E0B0E0809361035E
:100E100090936203A0936303B093640310926503FD
:100E20001092660310926703109268038091590331
:100E300090915A03A0915B03B0915C0380935D0392
:100E400090935E03A0935F03B09360030E94BD0282
:100E50006093590370935A0380935B0390935C03F0
:100E60008AEA92E00E94E600843611F40E94A4040B
:100E700062E070E080E090E00E94F0026AE070E0E2
:100E800080E090E00E94F00285E680936A03809102
:100E90006A03833609F43FC0853699F5809165036E
:100EA00090916603A0916703B09168030196A11D1C
:100EB000B11D8093650390936603A0936703B0937D
:100EC00068034091610350916203609163037091E4
:100ED0006403452B462B472B21F4892B8A2B8B2B24
:100EE00081F480E00E94F202882329F081E00E94D0
:100EF00027060E941B0664EF71E080E090E00E94EC
:100F0000C9026AE070E080E090E00E94F00281E0B7
:100F10000E94C805BACF0E94F104E0919903F091B4
:100F20009A03828193819C838B8387E391E09A83E8
:100F3000898384818D8385818E8386818F83878158
:100F400088878085898781858A8782858B8788E0E5
:100F50008C8760E0CE0101960E94E50340E060E0EE
:100F6000CE0101960E943405CE0101960E946405CF
:100F7000B801CE0101960E94BA00F80184819581E2
:100F80004197C8F4B801CE0101960E94BA0062965A
:100F90000FB6F894DEBF0FBECDBFDF91CF911F918A
:100FA0000F91FF90EF90DF90CF90BF90AF909F9008
:100FB0007F906F90089540E060E0CE0101960E941E
:100FC0003405B801CE0101960E94BA0040E061E00C
:100FD000CE0101960E943405F801A480B58080E11D
:100FE000682E712CF0E1AF16B10420F4350190E1C8
:100FF000A92EB12C6FE471E0CE010D960E94B606C9
:10100000F801E480F5806E147F0458F5AE14BF0437
:1010100008F47501F801C080D180F601EE0DFF1DC6
:1010200090801082C60CD71CC114D10479F0F6014F
:1010300001900020E9F731975F01AC18BD08B501B8
:10104000CE010D960E947C06811117C0CE010D962F
:101050000E94A406F80180819181E80EF91EF70133
:101060009082BE01635F7F4FCE0101960E94BA005D
:10107000CE010D960E94E7068ACFBA8AA98AB601E8
:101080008D859E850E947E12E5CF1F920F920FB62E
:101090000F9211242F933F934F935F936F937F93FE
:1010A0008F939F93AF93BF93EF93FF938AEA92E05E
:1010B0000E941401FF91EF91BF91AF919F918F9189
:1010C0007F916F915F914F913F912F910F900FBE44
:1010D0000F901F9018951F920F920FB60F92112428
:1010E0002F938F939F93EF93FF93E091BA02F09128
:1010F000BB028081E091C002F091C10282FD1BC061
:1011000090818091C3028F5F8F732091C4028217F8
:1011100041F0E091C302F0E0E655FD4F958F8093DA
:10112000C302FF91EF919F918F912F910F900FBE6E
:101130000F901F9018958081F4CF1F920F920FB6D9
:101140000F9211242F933F938F939F93AF93BF934D
:1011500080918C0290918D02A0918E02B0918F02AD
:1011600030918B0223E0230F2D3758F50196A11DF6
:10117000B11D20938B0280938C0290938D02A093DB
:101180008E02B0938F028091900290919102A09173
:101190009202B09193020196A11DB11D809390021D
:1011A00090939102A0939202B0939302BF91AF915A
:1011B0009F918F913F912F910F900FBE0F901F9095
:1011C000189526E8230F0296A11DB11DD2CF1F92BC
:1011D0000F920FB60F9211242F933F934F935F936B
:1011E0006F937F938F939F93AF93BF93EF93FF93EF
:1011F0008091B900887F803609F44AC0F0F58832C2
:1012000009F4A7C018F5803109F49BC0B8F488230D
:1012100009F4F9C0883009F494C0FF91EF91BF91AF
:10122000AF919F918F917F916F915F914F913F917E
:101230002F910F900FBE0F901F901895883109F4D1
:1012400088C0803251F78093670214C0803409F45B
:101250009DC040F48033B9F38833F9F68093670278
:1012600085ECB0C0803509F485C0883509F496C096
:10127000883499F60E942F03D0CF883909F48CC0A6
:1012800038F5883729F050F4883611F0803729F680
:1012900083E080939A021092660257C0883809F45E
:1012A0007BC0803919F0803809F0B7CF8091660291
:1012B000803208F071C0E091660281E08E0F809369
:1012C00066028091BB00F0E0EA5BFD4F80833DC089
:1012D000803B39F0E0F4803A09F479C0883A09F0AB
:1012E0009CCF84E080939A021092450210924402AF
:1012F000E0919602F0919702099580914402811144
:101300000FC081E0809344021092240209C0803C07
:1013100009F4A6CF883C09F4A3CF883B09F07DCF20
:10132000E091450281E08E0F80934502F0E0EC5D94
:10133000FD4F80818093BB009091450280914402D3
:1013400029C080918A028093BB0085EC8093BC0009
:1013500064CF9091890280918802981758F5E091A6
:10136000890281E08E0F80938902F0E0E859FD4FF9
:101370008081E9CFE091890281E08E0F809389021C
:101380008091BB00F0E0E859FD4F80839091890285
:10139000809188029817C8F285E8D8CFE091890239
:1013A00081E08E0F809389028091BB00F0E0E859C4
:1013B000FD4F80838091990281115CCF81E0809301
:1013C000980284EA8093BC0010929A0226CF85ECA2
:1013D0008093BC0010929A0280916602803230F4B1
:1013E000E0916602F0E0EA5BFD4F108260916602D8
:1013F00070E0E0919402F091950286E492E0099504
:10140000109266020ACF1092670234CF1F920F9299
:101410000FB60F9211242F933F934F935F936F93C7
:101420007F938F939F93AF93BF93EF93FF9380919D
:101430009C030E94CC012091A1033091A2032F5F55
:101440003F4F3093A2032093A10320919F0330913B
:10145000A0032536310518F094E090939B039091FA
:101460009B03911130C0811169C02091A10330917B
:10147000A2032436310528F41092A2031092A1038E
:101480005DC010926D041092A00310929F032091F2
:101490009F033091A003A9014F5F5F4F5093A003BA
:1014A00040939F034091A1035091A203220F331F49
:1014B000F901ED55FC4F518340831092A203109225
:1014C000A10391E021C090919B03913001F58130FF
:1014D000A9F520919F033091A003A9014F5F5F4FB1
:1014E0005093A00340939F034091A1035091A20306
:1014F000220F331FF901ED55FC4F518340831092A9
:10150000A2031092A10392E090939B0317C09091C5
:101510009B03923061F4882309F4B9CF2091A10391
:101520003091A2032536310548F093E0EDCF90913C
:101530009B03933099F4882309F49ECF90919E03E6
:101540009923A9F0811124C080919D03882371F013
:1015500080919D0361E00E94F50109C090919B0379
:10156000943061F791E090936D04DFCF2D9AFF9155
:10157000EF91BF91AF919F918F917F916F915F910B
:101580004F913F912F910F900FBE0F901F90189584
:1015900080919D03882321F080919D0360E0DBCF43
:1015A0002D98E5CFCF93DF93CDB7DEB7C65AD109DB
:1015B0000FB6F894DEBF0FBECDBFEAEAF2E01382A9
:1015C000128288EE93E0A0E0B0E084839583A68346
:1015D000B78323E131E03183208325EC30E0358788
:1015E000248724EC30E03787268720EC30E0318BED
:1015F000208B21EC30E0338B228B22EC30E0358BDA
:10160000248B26EC30E0378B268B118E128E138EB6
:10161000148EE7E4F3E01382128284839583A68319
:10162000B78385E291E091838083E3E5F3E016825E
:1016300017821086118612861386148615861686E2
:101640001786108A118A128A138A148A158AE091E1
:101650009903F0919A031382128287E284838E8128
:1016600085838F818683888587838985808784E1C8
:10167000818784E082871386EEE6F4E086E290E0DC
:1016800095838483ABE9B3E08BE011968C9311973B
:1016900013961C92CE01019697838683CA55DF4F1D
:1016A0000FB6F894DEBF0FBECDBFDF91CF91089586
:1016B000CF93DF93CDB7DEB72C970FB6F894DEBF8C
:1016C0000FBECDBF789484B5826084BD84B581603F
:1016D00084BD85B5826085BD85B5816085BD8091FD
:1016E0006E00816080936E00109281008091810075
:1016F000826080938100809181008160809381006D
:10170000809180008160809380008091B10084602E
:101710008093B1008091B00081608093B00080918F
:101720007A00846080937A0080917A00826080934E
:101730007A0080917A00816080937A0080917A00AB
:10174000806880937A001092C100109295031092E5
:1017500096031092970310929803109255031092DB
:101760005603109257031092580368EB7BE080E019
:1017700090E00E94F00268EE73E080E090E00E944A
:101780008B02E091BA02F091BB0282E08083E0918B
:10179000B602F091B7021082E091B802F091B9025E
:1017A00080E180831092C202E091BE02F091BF02FC
:1017B00086E08083E091BC02F091BD02808180616F
:1017C0008083E091BC02F091BD02808188608083BB
:1017D000E091BC02F091BD02808180688083E0913D
:1017E000BC02F091BD0280818F7D80830E94BD028A
:1017F0006093550370935603809357039093580357
:1018000062E671E08AEA92E00E9473056AE070E0A5
:1018100080E090E00E94F00281E0809369030E94E2
:10182000BD026093550370935603809357039093C2
:10183000580363E771E08AEA92E00E94730582E050
:1018400090E00E94800484EF91E0A0E0B0E08093FB
:10185000610390936203A0936303B09364031092B7
:1018600065031092660310926703109268038091DB
:10187000590390915A03A0915B03B0915C0380934C
:101880005D0390935E03A0935F03B09360030E9497
:10189000BD026093590370935A0380935B03909346
:1018A0005C038AEA92E00E94E600843611F40E940A
:1018B000A40462E070E080E090E00E94F0026AE040
:1018C00070E080E090E00E94F00285E680936A0379
:1018D00080916A03833609F43FC0853699F580917B
:1018E000650390916603A0916703B0916803019628
:1018F000A11DB11D8093650390936603A0936703B8
:10190000B093680340916103509162036091630357
:1019100070916403452B462B472B21F4892B8A2B8E
:101920008B2B81F480E00E94F202882329F082E070
:101930000E9427060E941B0664EF71E080E090E0A1
:101940000E94C9026AE070E080E090E00E94F0022C
:1019500082E00E94C805BACF0E94F10460E08CE0EA
:101960000E94230261E08DE00E94230261E08DE08D
:101970000E94F50161E087E00E94230260E087E0B9
:101980000E94F501E0919903F0919A03828193817D
:101990009C838B8387E391E09A83898384818D8301
:1019A00085818E8386818F838781888780858987DB
:1019B00081858A8782858B8783858C8710929E029A
:1019C00010929D0210929C0210929B0210929A0219
:1019D00081E0809399021092980261E082E10E9476
:1019E000F50161E083E10E94F5018091B9008E7FED
:1019F0008093B9008091B9008D7F8093B90088E40D
:101A00008093B80085E48093BC0081EC90E09093D3
:101A100097028093960282EC90E0909395028093D7
:101A200094021E828B85823010F098E09E83898715
:101A300062E370E080E090E00E948B026C85CE0152
:101A400001960E94E50368EE73E080E090E00E945A
:101A50008B0260E3CE0101960E9404050BE416E4BC
:101A6000C8010197F1F760E3CE0101960E940405D9
:101A7000C8010197F1F760E3CE0101960E940405C9
:101A800083E592E00197F1F760E2CE0101960E94B2
:101A900004056E81606240E0CE0101960E941D0542
:101AA00084E08F8340E06CE0CE0101960E941D052A
:101AB000CE0101960E94640582E0888740E066E0DE
:101AC000CE0101960E941D0540E062E0CE01019624
:101AD0000E941D058BE39FE10197F1F788E08C8759
:101AE00060E0CE0101960E94E503CE0101960E94BE
:101AF00064056AE771E0CE0101960E94730541E03A
:101B000060E0CE0101960E94340565E871E0CE01E7
:101B100001960E94730568EE73E080E090E00E94F9
:101B20008B0240E4442E4FE1542E612C712C8CE04A
:101B30000E94CC01019709F073C0C090A602D0901A
:101B4000A702E090A802F090A902C092A202D0924F
:101B5000A302E092A402F092A5020E94BD026C19B9
:101B60007D098E099F09683B7B408105910528F41A
:101B70008CE00E94CC01019781F38CE00E94CC01A3
:101B8000019709F04DC067E971E0CE0101960E940E
:101B9000B606CE0101960E94EC06CE0101960E9487
:101BA000E70686E090E00E94800462EA71E0CE01E0
:101BB00001960E94B606CE0101960E94EC06CE0167
:101BC00001960E94E7066CEA71E0CE0101960E9440
:101BD000B606CE0101960E94EC06CE0101960E9447
:101BE000E70631E03093A10260EA7FE080E090E018
:101BF0000E948B0267EB71E0CE0101960E94B6064F
:101C0000CE0101960E94EC06CE0101960E94E706E5
:101C100068E873E180E090E00E948B021092A102DC
:101C20000E94BD026B017C01C092A602D092A70265
:101C3000E092A802F092A9028091A2029091A302E0
:101C4000A091A402B091A502A7019601281B390B0F
:101C50004A0B5B0BDA01C90188389341A105B10534
:101C600068F08091A102811109C08091990390913F
:101C70009A03FC01138660E00E94E5038EE00E9457
:101C800054028C019093A00280939F028FE00E94E7
:101C900054020132F3E01F070CF4CEC02091000182
:101CA000223509F43DC1C092A202D092A302E09273
:101CB000A402F092A50282E090E00E94800422E556
:101CC0002093000161EC71E0CE0101960E94B606FE
:101CD000CE0101960E94EC06CE0101960E94E70615
:101CE0008DB69EB667EC71E0CE0101960E94B606F5
:101CF000CE0101960E94EC06CE0101960E94E706F5
:101D000090E080E00E94F90F082F10E0C801880FD2
:101D1000991F4DB75EB7481B590B0FB6F8945EBFBD
:101D20000FBE4DBF8DB79EB701961C017C01B12C33
:101D3000A12C32E0C32ED12CA016B106ACF4C60102
:101D40000E94F90FF7018083C60101960E94F90FE6
:101D5000F7018183F2E0CF0ED11C2FEFA21AB20A55
:101D600032E0E30EF11CE8CFC0907004D090710413
:101D7000E0907204F09073041092700061E0F6013C
:101D800080810E94230260E0F60180810E94F501BB
:101D9000970150E040E0C301B2010E946E10F1E0F3
:101DA000F093B00069E06093B1002093B300EEE1DE
:101DB000E29FC001E39F900D112464E670E00E9451
:101DC0005A106093B400F12CE12CE016F106E8F40F
:101DD000F101619171911F018091B000E0FE13C08B
:101DE0008F7D8093B0006115710549F090E080E02F
:101DF000653071058105910510F00E944904FFEFDF
:101E0000EF1AFF0AE2CF8062ECCF8091B0008F7DA5
:101E10008093B0000FB6F8949EBE0FBE8DBE80E0DA
:101E200090E0892B09F483CE0E940001882309F4F5
:101E30007ECE0E9400007BCE083C11058CF52091DF
:101E400000012C3409F46CC0C092A202D092A3020B
:101E5000E092A402F092A50282E090E00E94800449
:101E60002CE4209300016DEC71E0CE0101960E94FC
:101E7000B606CE0101960E94EC06CE0101960E94A4
:101E8000E70662ED71E0CE0101960E94B606CE0132
:101E900001960E94EC06CE0101960E94E706BFCF94
:101EA000883C91050CF03FC080910001853509F414
:101EB000B6CFC092A202D092A302E092A402F09206
:101EC000A50282E090E00E94800435E53093000195
:101ED00069ED71E0CE0101960E94B606CE01019631
:101EE0000E94EC06CE0101960E94E70608E010E091
:101EF00061E087E00E94F5016AEF70E080E090E029
:101F00000E948B0260E087E00E94F5016AEF70E0BA
:101F100080E090E00E948B020150110949F77FCFC9
:101F2000883C910534F2813293400CF478CF809153
:101F30000001843409F473CFC092A202D092A302AC
:101F4000E092A402F092A50282E090E00E94800458
:101F500054E4509300016CED71E0CE0101960E94B3
:101F6000B606CE0101960E94EC06CE0101960E94B3
:101F7000E70606E010E061E08DE00E94F5016AEFFF
:101F800070E080E090E00E948B0260E08DE00E94B3
:101F9000F5016AEF70E080E090E00E948B02015052
:101FA000110949F73CCFFC0188279927E894219132
:101FB0002032E9F3293010F02E30C8F32B3241F0F3
:101FC0002D3239F4689404C00E94F10F820F911DE4
:101FD000219120532A30C0F31EF4909581959F4F94
:101FE00008957AE0979F902D879F802D910D112461
:101FF0000895F999FECF92BD81BDF89A992780B5D1
:102000000895A1E21A2EAA1BBB1BFD010DC0AA1F39
:10201000BB1FEE1FFF1FA217B307E407F50720F051
:10202000A21BB30BE40BF50B661F771F881F991FCC
:102030001A9469F760957095809590959B01AC0115
:10204000BD01CF0108952F923F924F925F926F9200
:102050007F928F929F92AF92BF92CF92DF92EF9238
:10206000FF920F931F93CF93DF93CDB7DEB7CA1BB9
:10207000DB0B0FB6F894DEBF0FBECDBF09942A88E4
:10208000398848885F846E847D848C849B84AA848C
:10209000B984C884DF80EE80FD800C811B81AA8119
:1020A000B981CE0FD11D0FB6F894DEBF0FBECDBFE4
:1020B000ED010895AA1BBB1B51E107C0AA1FBB1F5E
:1020C000A617B70710F0A61BB70B881F991F5A95C4
:1020D000A9F780959095BC01CD010895052E97FB39
:1020E0001EF400940E94851057FD07D00E94011035
:1020F00007FC03D04EF40C94851050954095309514
:1021000021953F4F4F4F5F4F089590958095709563
:1021100061957F4F8F4F9F4F0895EE0FFF1F0590E2
:10212000F491E02D09940F931F93CF93DF938230A6
:10213000910510F482E090E0E0917804F091790448
:1021400030E020E0B0E0A0E0309799F421153105AF
:1021500009F44AC0281B390B24303105D8F58A818F
:102160009B816115710589F1FB0193838283FE01D7
:1021700011C0408151810281138148175907E0F055
:102180004817590799F4109761F012960C9312971B
:1021900013961C933296CF01DF91CF911F910F912F
:1021A00008950093780410937904F4CF2115310534
:1021B00051F04217530738F0A901DB019A01BD0124
:1021C000DF01F801C1CFEF01F9CF9093790480933B
:1021D0007804CDCFFE01E20FF31F8193919322503B
:1021E000310939832883D7CF209176043091770441
:1021F000232B41F4209103013091040130937704A3
:1022000020937604209101013091020121153105BE
:1022100041F42DB73EB74091050150910601241BB2
:10222000350BE0917604F0917704E217F307A0F400
:102230002E1B3F0B2817390778F0AC014E5F5F4F1C
:102240002417350748F04E0F5F1F509377044093D3
:102250007604819391939FCFF0E0E0E09CCFCF9301
:10226000DF930097E9F0FC01329713821282A0916C
:102270007804B0917904ED0130E020E01097A1F4EA
:1022800020813181820F931F209176043091770451
:102290002817390709F061C0F0937704E0937604BA
:1022A000DF91CF910895EA01CE17DF07E8F54A8163
:1022B0005B819E0141155105B1F7E901FB83EA837A
:1022C00049915991C40FD51FEC17FD0761F4808126
:1022D00091810296840F951FE901998388838281F9
:1022E00093819B838A83F0E0E0E012968D919C912C
:1022F00013970097B9F52D913C911197CD01029656
:10230000820F931F209176043091770428173907A4
:1023100039F6309751F51092790410927804B09301
:102320007704A0937604BCCFD383C28340815181CC
:10233000840F951FC817D90761F44E5F5F4F8881DE
:102340009981480F591F518340838A819B819383D0
:1023500082832115310509F0B0CFF0937904E09321
:1023600078049ECFFD01DC01C0CF13821282D7CF4B
:10237000B0E0A0E0EEEBF1E10C9425108C010097A9
:1023800051F4CB010E9493108C01C801CDB7DEB788
:10239000E0E10C944110FC01E60FF71F9C01225074
:1023A0003109E217F30708F49DC0D901CD91DC9102
:1023B0001197C617D70798F0C530D10530F3CE0175
:1023C00004978617970708F3C61BD70B2297C1936C
:1023D000D1936D937C93CF010E942F11D6CF5B01D7
:1023E000AC1ABD0A4C018C0E9D1EA0917804B091D0
:1023F0007904512C412CF12CE12C109731F580916E
:102400007604909177048815990509F05CC046160A
:10241000570608F058C08091010190910201009781
:1024200041F48DB79EB74091050150910601841B80
:10243000950BE817F90708F055C0F0937704E0937F
:102440007604F90171836083A0CF8D919C911197DF
:1024500012966C90129713967C901397A815B90555
:1024600059F56C0142E0C40ED11CCA14DB0420F102
:10247000AC014A195B09DA011296159780F0628265
:10248000738251834083D9016D937C93E114F104ED
:1024900071F0D7011396FC93EE93129776CF2296A4
:1024A0008C0F9D1FF90191838083F301EFCFF0938F
:1024B0007904E093780469CF4816590608F42C0192
:1024C0007D01D3019ACFCB010E9493107C0100972C
:1024D00049F0AE01B8010E947512C8010E942F1187
:1024E000870153CF10E000E050CFFB01DC0102C0B8
:1024F00001900D9241505040D8F70895FB01DC0146
:0E25000001900D920020E1F70895F894FFCFAE
:10250E004E00007A048000000040001400540000C9
:10251E0000000036018D00C3008301F400D200E6F6
:10252E000000000000B60389037D048C0082036F57
:10253E00036003000000006D058D007D047C0456D1
:10254E004D4450435F005F564D445043000D0A000A
:10255E005F564D44504500564D4450455F003A324B
:10256E003A00564D4450565F317C315F564D4450C3
:10257E00560A00564D4450525F0057656C636F6D9E
:10258E006520746F004D696C626174323220235085
:10259E00617469656E74005345545550204D4F4417
:1025AE00450045444954204D4F4445006F6E2D5211
:1025BE007C6F66662D4C00534554555020456E6415
:1025CE00005269676874004143204F4E004C6566A7
:1025DE0074004143204F464600557000446F776E9D
:0225EE000000EB
:00000001FF
