:100000000C948F000C94B7000C94B7000C94B700BC
:100010000C94B7000C94B7000C94B7000C94DC0758
:100020000C94B7000C94B7000C94B7000C94B70074
:100030000C94B7000C94B7000C94B7000C94B70064
:100040000C9473060C94B7000C9441060C941B0698
:100050000C94B7000C94B7000C94B7000C94B70044
:100060000C94BD060C94B70000000000240027008B
:100070002A0000000000250028002B0000000000DE
:1000800023002600290004040404040404040202DA
:100090000202020203030303030301020408102007
:1000A0004080010204081020010204081020000012
:1000B0000008000201000003040700000000000027
:1000C00000004D696C6261743232202350617469A2
:1000D000656E740057656C636F6D6520746F0046C4
:1000E000726565206D656D6F727920004672656579
:1000F000206D656D6F727920006F6E2D527C6F667A
:10010000662D4C0045444954204D4F444500414321
:10011000204F4E004143204F46460000A8081124BE
:100120001FBECFEFD8E0DEBFCDBF11E0A0E0B1E051
:10013000ECE6FDE102C005900D92AA36B107D9F7B1
:1001400024E0AAE6B1E001C01D92A433B207E1F7B2
:1001500010E0CFE8D0E004C02197FE010E94E10D3D
:10016000CE38D107C9F70E940E090C94B40E0C9436
:100170000000EF92FF920F931F93CF93DF938C01B8
:100180007B01D0E0C0E0F701EC0FFD1F6491662316
:1001900061F0D801ED91FC910190F081E02DC80152
:1001A0000995892B11F02196EECFCE01DF91CF91E9
:1001B0001F910F91FF90EF900895AF92BF92CF9251
:1001C000DF92EF92FF920F931F93CF93DF936C0117
:1001D0007B018B01040F151FEB015E01AE18BF08F8
:1001E000C017D10759F06991D601ED91FC910190AA
:1001F000F081E02DC6010995892B79F7C501DF91C2
:10020000CF911F910F91FF90EF90DF90CF90BF9013
:10021000AF900895089508950895FC01538D448D7D
:10022000252F30E0842F90E0821B930B541710F0A1
:10023000CF96089501970895FC01918D828D9817AE
:1002400061F0A28DAE0FBF2FB11D5D968C91928D86
:100250009F5F9F73928F90E008958FEF9FEF0895B7
:10026000FC01918D828D981731F0828DE80FF11D80
:10027000858D90E008958FEF9FEF0895FC01918D9B
:10028000228D892F90E0805C9F4F821B91098F7394
:100290009927089585E093E00E943E0121E0892B93
:1002A00009F420E0822F089580E090E0892B29F066
:1002B0000E944A0181110C9400000895FC01A48D54
:1002C000A80FB92FB11DA35ABF4F2C91848D90E078
:1002D00001968F739927848FA689B7892C93A0895B
:1002E000B1898C91837080648C93938D848D9813E5
:1002F00006C00288F389E02D80818F7D8083089578
:10030000EF92FF920F931F93CF93DF93EC0181E065
:10031000888F9B8D8C8D98131AC0E889F98980810C
:1003200085FF15C09FB7F894EE89FF896083E8893F
:10033000F98980818370806480839FBF81E090E031
:10034000DF91CF911F910F91FF90EF900895F62EBE
:100350000B8D10E00F5F1F4F0F731127E02E8C8D58
:100360008E110CC00FB607FCFACFE889F98980819D
:1003700085FFF5CFCE010E945E01F1CFEB8DEC0F32
:10038000FD2FF11DE35AFF4FF0829FB7F8940B8FBA
:10039000EA89FB8980818062CFCFCF93DF93EC0124
:1003A000888D8823B9F0AA89BB89E889F9898C915D
:1003B00085FD03C0808186FD0DC00FB607FCF7CF19
:1003C0008C9185FFF2CF808185FFEDCFCE010E9419
:1003D0005E01E9CFDF91CF910895833081F028F459
:1003E000813099F08230A9F008958730A9F08830E3
:1003F000C9F08430B1F4809180008F7D03C080917A
:1004000080008F7780938000089584B58F7784BDB6
:10041000089584B58F7DFBCF8091B0008F77809356
:10042000B00008958091B0008F7DF9CFCF93DF9316
:10043000282F30E0F901E255FF4F8491F901E6568B
:10044000FF4FD491F901EA57FF4FC491CC23A1F09B
:1004500081110E94ED01EC2FF0E0EE0FFF1FE45838
:10046000FF4FA591B491EC91ED2381E090E009F468
:1004700080E0DF91CF91089580E090E0FACF1F9364
:10048000CF93DF93282F30E0F901E255FF4F84919D
:10049000F901E656FF4FD491F901EA57FF4FC49195
:1004A000CC23A9F0162F81110E94ED01EC2FF0E072
:1004B000EE0FFF1FEE58FF4FA591B4918FB7F89440
:1004C000EC91111108C0D095DE23DC938FBFDF9132
:1004D000CF911F910895DE2BF8CFCF93DF9390E05B
:1004E000FC01E656FF4F24918A579F4FFC018491EF
:1004F0008823D1F090E0880F991FFC01E859FF4F45
:10050000A591B491FC01EE58FF4FC591D4916111B2
:100510000EC09FB7F8948C91E22FE0958E238C93B8
:100520002881E223E8839FBFDF91CF9108958FB7A1
:10053000F894EC91E22BEC938FBFF6CF8E50806451
:1005400080937C0080917A00806480937A0080910F
:100550007A0086FDFCCF8091780090917900089513
:100560003FB7F8948091E7029091E802A091E902E8
:10057000B091EA0226B5A89B05C02F3F19F001965D
:10058000A11DB11D3FBFBA2FA92F982F8827BC01ED
:10059000CD01620F711D811D911D42E0660F771F15
:1005A000881F991F4A95D1F708958F929F92AF9215
:1005B000BF92CF92DF92EF92FF924B015C010E94BB
:1005C000B0026B017C010E94B0026C197D098E099A
:1005D0009F09683E734081059105A8F321E0821AC6
:1005E0009108A108B10888EEC80E83E0D81EE11C6E
:1005F000F11C81149104A104B10429F7FF90EF903C
:10060000DF90CF90BF90AF909F908F90089585ED31
:100610008093BC008091BC0084FDFCCF1092F1025D
:10062000089520919F02260F3327331F2132310571
:10063000ECF42091F102FC0190E080E0243069F0BC
:1006400082E00895A0919F022191AC0141585D4F35
:10065000A40FB52FB11D2C930196861798F38091A6
:100660009F02680F60939F0280E0089581E00895E3
:10067000E091F5028091F402E81730F4F0E0E15ADD
:10068000FD4F808190E008958FEF9FEF0895909146
:10069000F5028091F4022FEF3FEF981748F4E92F0D
:1006A000F0E0E15AFD4F208130E09F5F9093F5022A
:1006B000C90108958091F4029091F502891B990B6C
:1006C0000895CF92DF92EF92FF920F931F93CF93F3
:1006D000DF937C01CB018A0120915E02222389F005
:1006E000EB016B01C40ED51ECC15DD0569F06991D7
:1006F000D701ED91FC910190F081E02DC7010995A2
:10070000F3CF642F0E941103C801DF91CF911F9195
:100710000F91FF90EF90DF90CF900895CF93DF93EC
:100720001F92CDB7DEB7698320915E022223F9F0D4
:100730002091F202203258F021E030E0FC013383B6
:10074000228390E080E00F90DF91CF910895809117
:10075000F302E82FF0E0E25CFD4F998190838F5F18
:100760008093F3028093F20281E090E0ECCF61E0AD
:10077000CE0101960E941103F7CFCF93FC01C481F3
:1007800021E020935E02C0933D021092F30210928A
:10079000F2028385682B82EA93E00E948E03909197
:1007A000F202913208F03FC08091F1028111FCCF3A
:1007B00082E08093F10281E08093F0028FEF8093DA
:1007C000C2021092E4029093E302AEE3B2E0E3ECE3
:1007D000F2E080E098132FC01092E5028091E502CC
:1007E000CC0FC82BC093E5028091EF02813039F520
:1007F0001092EF028091E5028093BB008091BC00D3
:1008000083FDF8CF85EC8093BC008091F1028230AB
:10081000E1F38091C2028F3F31F08091C2028032B9
:1008200011F08091C2021092F3021092F202109223
:100830005E02CF9108952D9121938F5FCBCF85EEEE
:10084000E2CF089590E080E008950F931F93CF9337
:10085000DF938C01D0E0C0E061E087E00E943F02BE
:1008600062E370E080E090E00E94D50260E087E003
:100870000E943F0262E370E080E090E00E94D502B7
:1008800021960C171D0741F7DF91CF911F910F9112
:1008900008958F929F92AF92BF920F931F93CF9321
:1008A000DF93CDB7DEB7A1970FB6F894DEBF0FBECA
:1008B000CDBF19A2423008F44AE08E010F5D1F4FF0
:1008C000842E912CB12CA12CA50194010E94880D9D
:1008D000E62FB901CA01EA3044F5E05DD801EE9394
:1008E0008D01232B242B252B79F790E080E01097A6
:1008F00069F0FD0101900020E9F73197AF014A1B33
:100900005B0BBD0185E093E00E94DD00A1960FB670
:10091000F894DEBF0FBECDBFDF91CF911F910F9135
:10092000BF90AF909F908F900895E95CD7CFCF9202
:10093000DF92EF92FF92CF93DF936C01990FEE0855
:10094000FF08F7FE23C06DE285E093E00E9480017E
:10095000EC0166277727CB016C197D098E099F0969
:100960004AE00E944904C80FD91F42E050E06FE3FB
:1009700071E085E093E00E94DD008C0F9D1FDF9108
:10098000CF91FF90EF90DF90CF9008954AE0C7019C
:10099000B6010E944904EC01E8CF0F931F93CF9357
:1009A0008C01C62F0E94BD036C2F6460C8010E9499
:1009B000BD036C2F6B7FC8010E94BD0383EC90E0E8
:1009C0000197F1F7CF911F910F9108950F931F9306
:1009D000CF93DF938C01D62FC42F607F642B0E94AE
:1009E000CD0480E1D89FB00111246C2BC801DF91A8
:1009F000CF911F910F910C94CD04CF93DF93CDB77E
:100A0000DEB728970FB6F894DEBF0FBECDBF28E043
:100A1000E7E0F1E0DE01119601900D922A95E1F7F1
:100A2000FC012085261708F46FEF70E0660F771F32
:100A300021E030E02C0F3D1F620F731FFB0160812E
:100A4000606840E028960FB6F894DEBF0FBECDBFB9
:100A5000DF91CF910C94E60440E061E00E94E6044F
:100A60008BE39FE10197F1F708950F931F93CF93C5
:100A7000DF93CDB7DEB72C970FB6F894DEBF0FBE6D
:100A8000CDBF8C01E091AE03F091AF0382819381E1
:100A90009C838B8387E391E09A83898384818D8310
:100AA00085818E8386818F838781888780858987EA
:100AB00081858A8782858B8788E08C8760E0CE017C
:100AC00001960E94BD0360E0CE0101960E94FD04E4
:100AD000CE0101960E942C05F80144815581608168
:100AE0007181CE0101960E94DD002C960FB6F8941C
:100AF000DEBF0FBECDBFDF91CF911F910F91089543
:100B000041E00E94E60481E090E008950F931F9376
:100B1000CF93DF93EC0188819981009759F02A8166
:100B20003B812617370730F081E0DF91CF911F918D
:100B30000F9108958B016F5F7F4F0E94E70D009723
:100B400059F0998388831B830A832C813D81232B51
:100B500059F7FC011082E8CF80E0E7CFCF93DF9315
:100B6000EC0188819981009711F00E94EF0C1982A5
:100B700018821D821C821B821A82DF91CF910895F8
:100B8000EF92FF920F931F93CF93DF93EC018B01B2
:100B9000CB010E947F0D7C01BC01CE010E94860525
:100BA00081110BC0CE010E94AE05CE01DF91CF9125
:100BB0001F910F91FF90EF900895FD82EC82B80194
:100BC000888199810E94780DF0CFFC01808191810C
:100BD0000C94EF0CEF92FF920F931F93CF93DF9340
:100BE000EC017B01198218821B821A821D821C82F1
:100BF000FB0101900020E9F731978F01061B170BCD
:100C0000B8010E948605811109C0CE01DF91CF9104
:100C10001F910F91FF90EF900C94AE051D830C83F4
:100C2000B70188819981DF91CF911F910F91FF903A
:100C3000EF900C94AD0E1F920F920FB60F921124ED
:100C40002F933F934F935F936F937F938F939F93D4
:100C5000AF93BF93EF93FF9385E093E00E945E0113
:100C6000FF91EF91BF91AF919F918F917F916F9184
:100C70005F914F913F912F910F900FBE0F901F905A
:100C800018951F920F920FB60F9211242F938F93E6
:100C90009F93EF93FF93E0911503F09116038081EA
:100CA000E0911B03F0911C0382FD1BC09081809199
:100CB0001E038F5F8F7320911F03821741F0E09115
:100CC0001E03F0E0EB5FFC4F958F80931E03FF91B6
:100CD000EF919F918F912F910F900FBE0F901F90CA
:100CE00018958081F4CF1F920F920FB60F921124A6
:100CF0002F933F938F939F93AF93BF938091F6026F
:100D00009091F702A091F802B091F9023091E602B9
:100D100023E0230F2D3758F50196A11DB11D209317
:100D2000E6028093F6029093F702A093F802B09344
:100D3000F9028091E7029091E802A091E902B09156
:100D4000EA020196A11DB11D8093E7029093E8028B
:100D5000A093E902B093EA02BF91AF919F918F9166
:100D60003F912F910F900FBE0F901F90189526E87E
:100D7000230F0296A11DB11DD2CF1F920F920FB665
:100D80000F9211242F933F934F935F936F937F9311
:100D90008F939F93AF93BF93EF93FF938091B9008D
:100DA000887F803609F44AC0F0F5883209F4A7C07C
:100DB00018F5803109F49BC0B8F4882309F4F9C010
:100DC000883009F494C0FF91EF91BF91AF919F914A
:100DD0008F917F916F915F914F913F912F910F90E4
:100DE0000FBE0F901F901895883109F488C080328B
:100DF00051F78093C20214C0803409F49DC040F4BE
:100E00008033B9F38833F9F68093C20285ECB0C021
:100E1000803509F485C0883509F496C0883499F680
:100E20000E940703D0CF883909F48CC038F5883781
:100E300029F050F4883611F0803729F683E080934A
:100E4000F1021092C10257C0883809F47BC0803982
:100E500019F0803809F0B7CF8091C102803208F0D4
:100E600071C0E091C10281E08E0F8093C102809138
:100E7000BB00F0E0EF55FD4F80833DC0803B39F073
:100E8000E0F4803A09F479C0883A09F09CCF84E014
:100E90008093F1021092A00210929F02E091ED0265
:100EA000F091EE02099580919F0281110FC081E0BF
:100EB00080939F0210927F0209C0803C09F4A6CF64
:100EC000883C09F4A3CF883B09F07DCFE091A002D4
:100ED00081E08E0F8093A002F0E0E158FD4F808109
:100EE0008093BB009091A00280919F0229C08091C5
:100EF000E5028093BB0085EC8093BC0064CF9091A9
:100F0000E4028091E302981758F5E091E40281E051
:100F10008E0F8093E402F0E0ED53FD4F8081E9CF26
:100F2000E091E40281E08E0F8093E4028091BB00A7
:100F3000F0E0ED53FD4F80839091E4028091E30255
:100F40009817C8F285E8D8CFE091E40281E08E0FCF
:100F50008093E4028091BB00F0E0ED53FD4F80836D
:100F60008091F00281115CCF81E08093EF0284EAEE
:100F70008093BC001092F10226CF85EC8093BC00D8
:100F80001092F1028091C102803230F4E091C102EE
:100F9000F0E0EF55FD4F10826091C10270E0E091EA
:100FA000EB02F091EC0281EA92E009951092C10205
:100FB0000ACF1092C20234CF1F920F920FB60F9237
:100FC00011242F933F934F935F936F937F938F934E
:100FD0009F93AF93BF93EF93FF9380916B010E9418
:100FE000160220917001309171012F5F3F4F3093B5
:100FF00071012093700120916E0130916F012536AF
:10100000310518F094E090936A0190916A01911172
:1010100030C0811169C02091700130917101243676
:10102000310528F410927101109270015DC0109288
:101030003C0210926F0110926E0120916E0130916E
:101040006F01A9014F5F5F4F50936F0140936E0195
:101050004091700150917101220F331FF901EE5838
:10106000FE4F51834083109271011092700191E004
:1010700021C090916A01913001F58130A9F520914C
:101080006E0130916F01A9014F5F5F4F50936F0167
:1010900040936E014091700150917101220F331FF6
:1010A000F901EE58FE4F5183408310927101109266
:1010B000700192E090936A0117C090916A0192309A
:1010C00061F4882309F4B9CF209170013091710146
:1010D0002536310548F093E0EDCF90916A019330C9
:1010E00099F4882309F49ECF90916D019923A9F07A
:1010F000811124C080916C01882371F080916C0172
:1011000061E00E943F0209C090916A01943061F74A
:1011100091E090933C02DFCF2D9AFF91EF91BF9128
:10112000AF919F918F917F916F915F914F913F917F
:101130002F910F900FBE0F901F90189580916C010A
:10114000882321F080916C0160E0DBCF2D98E5CF02
:10115000CF93DF93CDB7DEB72C970FB6F894DEBFF1
:101160000FBECDBFE5E0F3E01382128288EE93E07C
:10117000A0E0B0E084839583A683B78323E131E0C8
:101180003183208325EC30E03587248724EC30E060
:101190003787268720EC30E0318B208B21EC30E044
:1011A000338B228B22EC30E0358B248B26EC30E025
:1011B000378B268B118E128E138E148EE2EAF3E09B
:1011C0001382128284839583A683B78385E291E09C
:1011D00091838083E091AE03F091AF03138212827A
:1011E00087E284838E8185838F8186838885878348
:1011F0008985808784E1818784E08287138686E2FF
:1012000090E09093B5038093B4032C960FB6F894B6
:10121000DEBF0FBECDBFDF91CF910895CF93DF9397
:10122000CDB7DEB72C970FB6F894DEBF0FBECDBF9B
:10123000789484B5826084BD84B5816084BD85B5B1
:10124000826085BD85B5816085BD80916E008160BD
:1012500080936E0010928100809181008260809363
:101260008100809181008160809381008091800065
:101270008160809380008091B10084608093B10090
:101280008091B00081608093B00080917A0084608A
:1012900080937A0080917A00826080937A008091B6
:1012A0007A00816080937A0080917A0080688093D0
:1012B0007A001092C10082E090E00E94250460E074
:1012C0008CE00E946D02E0911503F091160382E01C
:1012D0008083E0911103F09112031082E0911303D7
:1012E000F09114038FEC808310921D03E091190399
:1012F000F0911A0386E08083E0911703F0911803C0
:10130000808180618083E0911703F09118038081D0
:1013100088608083E0911703F091180380818068D2
:101320008083E0911703F091180380818F7D808383
:1013300061E08DE00E946D0261E08DE00E943F025D
:1013400061E087E00E946D0260E087E00E943F025A
:101350006CEE70E085E093E00E94B9008E010F5FB3
:101360001F4F8091300490913104009711F484E371
:1013700094E09801281B390BC9010E949704E09161
:10138000AE03F091AF03828193819C838B8387E3CB
:1013900091E09A83898384818D8385818E83868180
:1013A0008F83878188878085898781858A878285E1
:1013B0008B8783858C871092F5021092F40210922D
:1013C000F3021092F2021092F10281E08093F00297
:1013D0001092EF0261E082E10E943F0261E083E14E
:1013E0000E943F028091B9008E7F8093B900809166
:1013F000B9008D7F8093B90088E48093B80085E4BC
:101400008093BC008BE091E09093EE028093ED021C
:101410008CE091E09093EC028093EB021E828B852E
:10142000823010F098E09E83898762E370E080E06C
:1014300090E00E94D5026C85C8010E94BD0368EE51
:1014400073E080E090E00E94D50260E3C8010E9452
:10145000CD047BE4E72E76E4F72EC7010197F1F780
:1014600060E3C8010E94CD04C7010197F1F760E372
:10147000C8010E94CD0483E592E00197F1F760E294
:10148000C8010E94CD046E81606240E0C8010E94E4
:10149000E60484E08F8340E06CE0C8010E94E6042B
:1014A000C8010E942C0582E0888740E066E0C80100
:1014B0000E94E60440E062E0C8010E94E6048BE37B
:1014C0009FE10197F1F788E08C8760E0C8010E94F6
:1014D000BD03C8010E942C0564ED70E0C8010E94A4
:1014E000B90061E0C8010E94FD0462EC70E0C8012F
:1014F0000E94B90063E070E080E090E00E94D502B5
:101500006FED70E085E093E00E94B90080913004B7
:1015100090913104009711F484E394E0A801481BF2
:10152000590BCA010E94970420E0C22E20E0D22E5F
:10153000BB24B39434E4A32E45E5942E5CE4852EBD
:1015400062E5362E8CE00E941602019709F083C0F6
:101550008091010390910203A0910303B0910403D1
:101560008093FD029093FE02A093FF02B0930003CC
:101570002FB7F8948091F6029091F702A091F802AB
:10158000B091F9022FBF4091FD025091FE0260918F
:10159000FF0270910003841B950BA60BB70B883BD1
:1015A0009B40A105B10528F48CE00E94160201972A
:1015B000F9F28CE00E941602019709F04CC062E437
:1015C00071E0C8010E94EA05C8010E943505C80102
:1015D0000E94E50586E090E00E9425041A821982A7
:1015E0001C821B821E821D8264E071E0C8010E9481
:1015F000C005C8010E943505C8010E94E5051A8290
:1016000019821C821B821E821D8269EF70E0C80154
:101610000E94C005C8010E943505C8010E94E50569
:10162000B092FC0260EA7FE080E090E00E94D50288
:101630006DE471E0C8010E94EA05C8010E94350509
:10164000C8010E94E50568E873E180E090E00E942F
:10165000D5021092FC028FB7F8944090F602509099
:10166000F7026090F8027090F9028FBF4092010378
:101670005092020360920303709204038091FD0272
:101680009091FE02A091FF02B0910003A30192018C
:10169000281B390B4A0B5B0BDA01C90188389341CF
:1016A000A105B10568F08091FC02811109C080910B
:1016B000AE039091AF03FC01138660E00E94BD036E
:1016C0008EE00E949E027C019093FB028093FA02BE
:1016D0008FE00E949E02F1E2EF16F3E0FF06DCF1DC
:1016E00020910001223509F49DC04092FD025092E4
:1016F000FE026092FF027092000382E090E00E947E
:1017000025043092000167E571E0C8010E94EA05F6
:10171000C8010E943505C8010E94E5051A82198298
:101720001C821B821E821D826EE071E0C8010E9435
:10173000C005C8010E943505C8010E94E505C11415
:10174000D10409F4FFCE0E944A01882309F4FACE9D
:101750000E940000F7CE28ECE216F1043CF520913F
:1017600000012C3409F45EC04092FD025092FE024A
:101770006092FF027092000382E090E00E942504D4
:10178000809200016DE571E0C8010E94EA05C80180
:101790000E943505C8010E94E5051A8219821C8243
:1017A0001B821E821D8264E171E0C0CF883C9105DE
:1017B000E4F580910001853511F24092FD025092CE
:1017C000FE026092FF027092000382E090E00E94AD
:1017D00025049092000162E671E0C8010E94EA05CA
:1017E000C8010E943505C8010E94E50598E0E92E70
:1017F000F12C61E087E00E943F026AEF70E080E038
:1018000090E00E94D50260E087E00E943F026AEF0C
:1018100070E080E090E00E94D50231E0E31AF10828
:1018200041F78DCF883C910544F2813293400CF40E
:1018300086CF80910001843409F481CF4092FD026B
:101840005092FE026092FF027092000382E090E0EC
:101850000E942504A092000165E671E0C8010E9483
:10186000EA05C8010E943505C8010E94E50586E029
:10187000E82EF12C61E08DE00E943F026AEF70E0FB
:1018800080E090E00E94D50260E08DE00E943F027F
:101890006AEF70E080E090E00E94D50251E0E51A26
:1018A000F10841F74CCF0F931F93CF93DF93823012
:1018B000910510F482E090E0E0913204F09133045D
:1018C00030E020E0B0E0A0E0309799F42115310538
:1018D00009F44AC0281B390B24303105D8F58A8118
:1018E0009B816115710589F1FB0193838283FE0160
:1018F00011C0408151810281138148175907E0F0DE
:101900004817590799F4109761F012960C931297A3
:1019100013961C933296CF01DF91CF911F910F91B7
:1019200008950093320410933304F4CF2115310548
:1019300051F04217530738F0A901DB019A01BD01AC
:10194000DF01F801C1CFEF01F9CF90933304809309
:101950003204CDCFFE01E20FF31F81939193225009
:10196000310939832883D7CF209130043091310455
:10197000232B41F420910301309104013093310471
:10198000209330042091010130910201211531058D
:1019900041F42DB73EB74091050150910601241B3B
:1019A000350BE0913004F0913104E217F307A0F415
:1019B0002E1B3F0B2817390778F0AC014E5F5F4FA5
:1019C0002417350748F04E0F5F1F509331044093A2
:1019D0003004819391939FCFF0E0E0E09CCFCF93D0
:1019E000DF930097E9F0FC01329713821282A091F5
:1019F0003204B0913304ED0130E020E01097A1F4FF
:101A000020813181820F931F209130043091310465
:101A10002817390709F061C0F0933104E0933004CE
:101A2000DF91CF910895EA01CE17DF07E8F54A81EB
:101A30005B819E0141155105B1F7E901FB83EA8302
:101A400049915991C40FD51FEC17FD0761F48081AE
:101A500091810296840F951FE90199838883828181
:101A600093819B838A83F0E0E0E012968D919C91B4
:101A700013970097B9F52D913C911197CD010296DE
:101A8000820F931F209130043091310428173907B9
:101A900039F6309751F51092330410923204B09316
:101AA0003104A0933004BCCFD383C28340815181E1
:101AB000840F951FC817D90761F44E5F5F4F888167
:101AC0009981480F591F518340838A819B81938359
:101AD00082832115310509F0B0CFF0933304E093F0
:101AE00032049ECFFD01DC01C0CF13821282D7CF1A
:101AF000FB01DC0105900D920020E1F70895FC0147
:101B000005900020E9F7809590958E0F9F1F08950E
:101B1000A1E21A2EAA1BBB1BFD010DC0AA1FBB1FF1
:101B2000EE1FFF1FA217B307E407F50720F0A21B63
:101B3000B30BE40BF50B661F771F881F991F1A94D0
:101B400069F760957095809590959B01AC01BD01FA
:101B5000CF0108952F923F924F925F926F927F92A2
:101B60008F929F92AF92BF92CF92DF92EF92FF92AD
:101B70000F931F93CF93DF93CDB7DEB7CA1BDB0B59
:101B80000FB6F894DEBF0FBECDBF09942A883988FE
:101B900048885F846E847D848C849B84AA84B98405
:101BA000C884DF80EE80FD800C811B81AA81B98111
:101BB000CE0FD11D0FB6F894DEBF0FBECDBFED0125
:101BC0000895EE0FFF1F0590F491E02D0994B0E009
:101BD000A0E0EDEEFDE00C94AC0D8C01009751F40B
:101BE000CB010E94530C8C01C801CDB7DEB7E0E1F8
:101BF0000C94C80DFC01E60FF71F9C01225031091F
:101C0000E217F30708F49DC0D901CD91DC9111973B
:101C1000C617D70798F0C530D10530F3CE01049729
:101C20008617970708F3C61BD70B2297C193D1934A
:101C30006D937C93CF010E94EF0CD6CF5B01AC1A61
:101C4000BD0A4C018C0E9D1EA0913204B09133044C
:101C5000512C412CF12CE12C109731F5809130045E
:101C6000909131048815990509F05CC04616570615
:101C700008F058C08091010190910201009741F451
:101C80008DB79EB74091050150910601841B950BBD
:101C9000E817F90708F055C0F0933104E0933004D9
:101CA000F90171836083A0CF8D919C911197129659
:101CB0006C90129713967C901397A815B90559F557
:101CC0006C0142E0C40ED11CCA14DB0420F1AC014B
:101CD0004A195B09DA011296159780F062827382C5
:101CE00051834083D9016D937C93E114F10471F029
:101CF000D7011396FC93EE93129776CF22968C0F12
:101D00009D1FF90191838083F301EFCFF09333049A
:101D1000E093320469CF4816590608F42C017D017E
:101D2000D3019ACFCB010E94530C7C01009749F05C
:101D3000AE01B8010E94A40EC8010E94EF0C8701F9
:101D400053CF10E000E050CFFB01DC0102C0019056
:101D50000D9241505040D8F70895FB01DC010190ED
:0C1D60000D920020E1F70895F894FFCFE9
:101D6C004E000034048000000040001400540000B9
:101D7C000000008001DD000D01CD013E011C013091
:101D8C0001000000008E03610322040A015A03477C
:101D9C00033803000000008005DD00220421040D3F
:101DAC000A005345545550204D4F4445005345545B
:101DBC00555020456E64005269676874004C656626
:0A1DCC007400557000446F776E003C
:107E0000112484B714BE81FFF0D085E080938100F7
:107E100082E08093C00088E18093C10086E0809377
:107E2000C20080E18093C4008EE0C9D0259A86E02C
:107E300020E33CEF91E0309385002093840096BBD3
:107E4000B09BFECF1D9AA8958150A9F7CC24DD24C4
:107E500088248394B5E0AB2EA1E19A2EF3E0BF2EE7
:107E6000A2D0813461F49FD0082FAFD0023811F036
:107E7000013811F484E001C083E08DD089C08234E0
:107E800011F484E103C0853419F485E0A6D080C0E4
:107E9000853579F488D0E82EFF2485D0082F10E0AE
:107EA000102F00270E291F29000F111F8ED06801E7
:107EB0006FC0863521F484E090D080E0DECF843638
:107EC00009F040C070D06FD0082F6DD080E0C81688
:107ED00080E7D80618F4F601B7BEE895C0E0D1E017
:107EE00062D089930C17E1F7F0E0CF16F0E7DF06D8
:107EF00018F0F601B7BEE89568D007B600FCFDCFD4
:107F0000A601A0E0B1E02C9130E011968C91119780
:107F100090E0982F8827822B932B1296FA010C0160
:107F200087BEE89511244E5F5F4FF1E0A038BF0790
:107F300051F7F601A7BEE89507B600FCFDCF97BE46
:107F4000E89526C08437B1F42ED02DD0F82E2BD052
:107F50003CD0F601EF2C8F010F5F1F4F84911BD097
:107F6000EA94F801C1F70894C11CD11CFA94CF0C13
:107F7000D11C0EC0853739F428D08EE10CD085E9AC
:107F80000AD08FE07ACF813511F488E018D01DD067
:107F900080E101D065CF982F8091C00085FFFCCF94
:107FA0009093C60008958091C00087FFFCCF809118
:107FB000C00084FD01C0A8958091C6000895E0E648
:107FC000F0E098E1908380830895EDDF803219F02E
:107FD00088E0F5DFFFCF84E1DECF1F93182FE3DFCA
:107FE0001150E9F7F2DF1F91089580E0E8DFEE27F6
:047FF000FF270994CA
:027FFE00040479
:0400000300007E007B
:00000001FF